:100000000C942A000C94E60A0C94BF0A0C940D0B75
:100010000C9447000C9447000C9447000C94470044
:100020000C9447000C9447000C94B7090C94650994
:100030000C9447000C9447000C9447000C94470024
:100040000C9447000C9447000C9447000C94470014
:100050000C94470011241FBECFE5D8E0DEBFCDBF12
:1000600011E0A0E6B0E0EAECF8E202C005900D92E3
:10007000AA3FB107D9F712E0AAEFB1E001C01D9283
:10008000A731B107E1F70E946C120C9463140C9431
:100090000000EF92FF920F931F937B018C0120E0F1
:1000A00030E040E05FE40E94C50388238CF0C80183
:1000B000B70120E030E040E05FE40E94C1010E940F
:1000C00083049B01AC01205030404040504806C0A2
:1000D000C801B7010E9483049B01AC01B901CA01A8
:1000E0001F910F91FF90EF900895A0E0B0E0EBE733
:1000F000F0E00C942C14DC012B01FA019C9192305D
:1001000008F439C1EB018881823008F433C194309E
:1001100069F4843009F02FC111969C91119789815F
:10012000981709F428C1ACEDB0E025C1843009F47A
:1001300021C18230A9F4923009F01DC19A01AD01AC
:1001400088E0EA010990AE01E90109929E0181501F
:10015000C1F7E201898111969C918923818308C1AD
:10016000923009F407C112962D903C901397EB0141
:100170008A819B811496AD90BD90CD90DC901797AD
:10018000EC80FD800E811F819101281B390BB90184
:1001900037FF04C066277727621B730B6032710537
:1001A0000CF061C0121613066CF537014801062EDB
:1001B00004C096948794779467940A94D2F721E0C8
:1001C00030E040E050E004C0220F331F441F551FB1
:1001D0006A95D2F721503040404050402E213F21B7
:1001E00040235123211531054105510521F021E01E
:1001F00030E040E050E079018A01E628F72808293C
:1002000019293CC0232BD1F1260E371E350146019A
:10021000062E04C096948794779467940A94D2F734
:1002200021E030E040E050E004C0220F331F441FC3
:10023000551F6A95D2F721503040404050402A2146
:100240003B214C215D21211531054105510521F04E
:1002500021E030E040E050E059016A01A628B728CB
:10026000C828D9280BC0821593052CF01C01AA249C
:10027000BB24650103C0EE24FF24870111969C91E5
:10028000D20111968C91981709F445C0992339F041
:10029000A80197012A193B094C095D0906C0A6016E
:1002A00095012E193F09400B510B57FD08C01182D3
:1002B0003382228224833583468357831DC081E0A5
:1002C00081833382228288279927DC01821B930B4A
:1002D000A40BB50B84839583A683B7830DC0220F2F
:1002E000331F441F551F24833583468357838281E0
:1002F000938101979383828324813581468157813D
:10030000DA01C9010197A109B1098F5F9F4FAF4F72
:10031000BF4328F30BC0918333822282EA0CFB1C7B
:100320000C1D1D1DE482F5820683178383E0808304
:10033000248135814681578157FF1AC0C901AA27F8
:1003400097FDA095BA2F81709070A070B0705695EF
:10035000479537952795822B932BA42BB52B848318
:100360009583A683B7838281938101969383828349
:10037000DF0101C0D201CD01CDB7DEB7E2E10C94BF
:100380004814A0E2B0E0E7ECF1E00C943814698383
:100390007A838B839C832D833E834F835887E9E048
:1003A000EE2EF12CEC0EFD1ECE010196B7010E943F
:1003B00074068E010F5E1F4FCE010596B8010E9494
:1003C00074068A8991E089278A8BC701B801AE013A
:1003D000475E5F4F0E9475000E949F05A096E6E071
:1003E0000C945414A0E2B0E0E8EFF1E00C9438145F
:1003F00069837A838B839C832D833E834F835887C5
:10040000F9E0EF2EF12CEC0EFD1ECE010196B701A6
:100410000E9474068E010F5E1F4FCE010596B80133
:100420000E947406C701B801AE01475E5F4F0E948B
:1004300075000E949F05A096E6E00C945414A0E27B
:10044000B0E0E5E2F2E00C942C1469837A838B83AC
:100450009C832D833E834F835887CE010196BE0136
:10046000675F7F4F0E947406CE010596BE016F5EE6
:100470007F4F0E9474069985923088F08989823076
:10048000C8F0943019F4823051F404C0843029F457
:10049000923081F48CED90E0C6C0923049F420E0B7
:1004A0009A858A89981321E02A87CE010996BBC0D4
:1004B000823049F420E09A858A89981321E02A8BBA
:1004C000CE014196B0C02D843E844F8458886D88FB
:1004D0007E888F88988CEE24FF248701AA24BB2471
:1004E000650140E050E060E070E0E0E0F0E0C10174
:1004F00081709070892BE9F0E60CF71C081D191D1E
:100500009A01AB012A0D3B1D4C1D5D1D80E090E062
:10051000A0E0B0E0E614F7040805190520F481E036
:1005200090E0A0E0B0E0BA01A901480F591F6A1F8E
:100530007B1FAA0CBB1CCC1CDD1C97FE08C081E0F5
:1005400090E0A0E0B0E0A82AB92ACA2ADB2A3196B6
:10055000E032F10549F0660C771C881C991C569412
:10056000479437942794C3CFFA85EA892B893C892D
:100570008B859C85280F391F2E5F3F4F17C0CA01FE
:1005800081709070892B61F016950795F794E79428
:1005900080E090E0A0E0B0E8E82AF92A0A2B1B2BC3
:1005A00076956795579547952F5F3F4F77FDE7CF36
:1005B0000CC0440F551F661F771F17FD4160EE0CDE
:1005C000FF1C001F111F21503040403090E05907A0
:1005D00090E0690790E4790760F32B8F3C8FDB0193
:1005E000CA018F779070A070B07080349105A1051A
:1005F000B10561F447FD0AC0E114F10401051105DC
:1006000029F0405C5F4F6F4F7F4F40781A8EFE1786
:1006100011F081E08A8F4D8F5E8F6F8F78A383E01A
:10062000898FCE0149960E949F05A096E2E10C9425
:100630004814A8E1B0E0EFE1F3E00C9434146983CE
:100640007A838B839C832D833E834F835887B9E0C5
:10065000EB2EF12CEC0EFD1ECE010196B7010E948F
:1006600074068E010F5E1F4FCE010596B8010E94E1
:1006700074062985223008F47EC03989323010F49E
:10068000B8017CC08A859A8989278A87243011F02D
:10069000223031F4231709F06EC06CED70E06EC0AB
:1006A000343039F41D861E861F86188A1C861B86E8
:1006B00004C0323021F484E08987B7015FC02B8504
:1006C0003C858B899C89281B390B3C872B87ED84C3
:1006D000FE840F851889AD88BE88CF88D88CEA142F
:1006E000FB040C051D0540F4EE0CFF1C001F111F40
:1006F000215030403C872B8720E030E040E050E044
:1007000080E090E0A0E0B0E460E070E0EA14FB0478
:100710000C051D0540F0282B392B4A2B5B2BEA18C2
:10072000FB080C091D09B695A79597958795EE0CC2
:10073000FF1C001F111F6F5F7F4F6F31710531F775
:10074000DA01C9018F779070A070B0708034910584
:10075000A105B10561F427FD0AC0E114F10401050A
:10076000110529F0205C3F4F4F4F5F4F20782D87B8
:100770003E874F87588BBE01675F7F4FCB010E943A
:100780009F056896EAE00C945014A8E1B0E0EBEC09
:10079000F3E00C94381469837A838B839C832D83D4
:1007A0003E834F83588789E0E82EF12CEC0EFD1E26
:1007B000CE010196B7010E9474068E010F5E1F4F95
:1007C000CE010596B8010E9474068985823040F0FA
:1007D0008989823028F0C701B8010E94EC0601C067
:1007E0008FEF6896E6E00C945414A8E1B0E0EBEFCC
:1007F000F3E00C94381469837A838B839C832D8374
:100800003E834F83588789E0E82EF12CEC0EFD1EC5
:10081000CE010196B7010E9474068E010F5E1F4F34
:10082000CE010596B8010E9474068985823040F099
:100830008989823028F0C701B8010E94EC0601C006
:1008400081E06896E6E00C945414A8E0B0E0EBE296
:10085000F4E00C9435149B01AC0183E08983DA0148
:10086000C9018827B7FD83959927AA27BB27B82EEA
:10087000211531054105510519F482E089833AC0FB
:100880008823A9F0203080E0380780E0480780E81E
:10089000580729F460E070E080E09FEC30C0EE245F
:1008A000FF248701E21AF30A040B150B02C0790139
:1008B0008A018EE1C82ED12CDC82CB82ED82FE82B1
:1008C0000F831887C801B7010E94500501971816B9
:1008D000190684F4082E04C0EE0CFF1C001F111F23
:1008E0000A94D2F7ED82FE820F831887C81AD90ABC
:1008F000DC82CB82BA82CE0101960E949F052896A7
:10090000E9E00C945114ACE0B0E0E9E8F4E00C94B8
:100910003C1469837A838B839C83CE010196BE014C
:100920006B5F7F4F0E9474068D81823061F182304F
:1009300050F1843021F48E81882351F12EC02F8113
:10094000388537FD20C06E812F3131051CF06623BC
:10095000F9F023C08EE190E0821B930B29853A8544
:100960004B855C8504C056954795379527958A95A4
:10097000D2F76623B1F050954095309521953F4FC1
:100980004F4F5F4F0EC020E030E040E050E009C024
:100990002FEF3FEF4FEF5FE704C020E030E040E093
:1009A00050E8B901CA012C96E2E00C945814A8E072
:1009B000B0E0EDEDF4E00C9434147B018C01611592
:1009C00071058105910519F482E0898360C083E097
:1009D00089838EE1C82ED12CDC82CB82ED82FE820F
:1009E0000F831887C801B7010E945005FC01319799
:1009F000F7FF3BC0222733272E1B3F0B570168010F
:100A0000022E04C0D694C794B794A7940A94D2F740
:100A100040E050E060E070E081E090E0A0E0B0E015
:100A200004C0880F991FAA1FBB1F2A95D2F70197F0
:100A3000A109B1098E219F21A023B1230097A1050F
:100A4000B10521F041E050E060E070E04A295B2907
:100A50006C297D294D835E836F8378878EE190E0DA
:100A60008E1B9F0B9C838B8312C0309781F00E2EC0
:100A700004C0EE0CFF1C001F111F0A94D2F7ED8278
:100A8000FE820F831887CE1ADF0ADC82CB821A829D
:100A9000CE0101960E949F052896EAE00C9450141E
:100AA000EF92FF920F931F937B018C0180E0E81679
:100AB00080E0F80681E0080780E0180788F48FEFEF
:100AC000E816F1040105110531F028F088E090E006
:100AD000A0E0B0E017C080E090E0A0E0B0E012C07D
:100AE00080E0E81680E0F80680E0080781E018075B
:100AF00028F088E190E0A0E0B0E004C080E190E060
:100B0000A0E0B0E020E230E040E050E0281B390BEC
:100B10004A0B5B0B04C016950795F794E7948A95EA
:100B2000D2F7F701EC51FF4F8081281B31094109B1
:100B30005109C9011F910F91FF90EF900895DF9225
:100B4000EF92FF920F931F93FC01E480F5800681E2
:100B50001781D1808081823048F480E090E0A0E16C
:100B6000B0E0E82AF92A0A2B1B2BA5C0843009F42F
:100B70009FC0823021F4EE24FF24870105C0E114D8
:100B8000F1040105110519F4E0E0F0E096C062817E
:100B900073819FEF623879070CF05BC022E83FEF6A
:100BA000261B370B2A3131052CF020E030E040E0E5
:100BB00050E02AC0B801A701022E04C076956795BF
:100BC000579547950A94D2F781E090E0A0E0B0E015
:100BD00004C0880F991FAA1FBB1F2A95D2F701973F
:100BE000A109B1098E219F21A023B1230097A1055E
:100BF000B10521F081E090E0A0E0B0E09A01AB0106
:100C0000282B392B4A2B5B2BDA01C9018F77907087
:100C1000A070B07080349105A105B10539F427FFAB
:100C200009C0205C3F4F4F4F5F4F04C0215C3F4FD6
:100C30004F4F5F4FE0E0F0E02030A0E03A07A0E047
:100C40004A07A0E45A0710F0E1E0F0E079018A01D8
:100C500027C06038710564F5FB01E158FF4FD801EA
:100C6000C7018F779070A070B07080349105A10596
:100C7000B10539F4E7FE0DC080E490E0A0E0B0E0FB
:100C800004C08FE390E0A0E0B0E0E80EF91E0A1F78
:100C90001B1F17FF05C016950795F794E79431962B
:100CA00087E016950795F794E7948A95D1F705C0E4
:100CB000EE24FF248701EFEFF0E06E2F67956627A3
:100CC0006795902F9F77D794DD24D7948E2F8695A4
:100CD000492F462B582F5D29B701CA011F910F914B
:100CE000FF90EF90DF900895FC01DB01408151817E
:100CF0002281622F6F7770E0221F2227221F9381AB
:100D0000892F880F822B282F30E0991F9927991F50
:100D100011969C93119721153105A9F5411551059F
:100D20006105710511F482E037C082E89FEF1396E8
:100D30009C938E9312979A01AB0167E0220F331FA9
:100D4000441F551F6A95D1F783E08C930DC0220F85
:100D5000331F441F551F12968D919C911397019735
:100D600013969C938E931297203080E0380780E092
:100D7000480780E4580758F314962D933D934D93FC
:100D80005C93179708952F3F310579F4411551056C
:100D90006105710519F484E08C93089564FF03C024
:100DA00081E08C9312C01C9210C02F5730401396D4
:100DB0003C932E93129783E08C9387E0440F551F4A
:100DC000661F771F8A95D1F7706414964D935D93D3
:100DD0006D937C93179708951F93DC01FB019C9101
:100DE000923008F447C08081823008F443C09430C8
:100DF00051F411961C91843099F58181682F70E02F
:100E0000611B71093FC0843021F0923031F482308F
:100E1000B9F18181882389F12DC011961C91119718
:100E20008230F1F081811817D9F412962D913C91FE
:100E30001397828193818217930794F028173907BB
:100E4000BCF014968D919D910D90BC91A02D2481A4
:100E5000358146815781281739074A075B0718F4FF
:100E6000112341F00AC082179307A407B50740F485
:100E7000112319F061E070E005C06FEF7FEF02C051
:100E800060E070E0CB011F91089581B5886081BD5D
:100E90000895A89508958330F9F0843028F48130BE
:100EA00079F08230B0F409C08530F9F08530D0F0A7
:100EB000863009F1873091F528C081B58E7F02C058
:100EC00081B5816081BD81B58D7F81BD81B58B7F0D
:100ED0001AC081B58E7F02C081B5816081BD81B5A8
:100EE0008260F3CF81B58E7F02C081B5816081BD04
:100EF00081B58D7F05C081B58E7F81BD81B5826052
:100F000081BD81B5846081BD089581B5816081BD59
:100F100081B5826081BD81B5846081BD089582E024
:100F200080B90898099886B7806486BF86B78460C0
:100F300086BF089596B7906496BF880F82B986B72A
:100F4000846086BF089586B7806286BF86B7806852
:100F500086BF06B607FEFDCF81B1887F8830E1F7F6
:100F6000089586B7806186BF86B7806886BF08957A
:100F7000880F83B9189886B78F7D86BF86B780683B
:100F800086BF06B607FEFDCF81B1887F8831E1F7C5
:100F90000895880F83B9189A86B78F7D86BF86B764
:100FA000806886BF06B607FEFDCF81B1887F80349A
:100FB000E1F7089583B986B7806886BF06B607FE55
:100FC000FDCF81B1887F8832E1F7089586B78068C8
:100FD00086BF06B607FEFDCF81B1887F8832E1F774
:100FE00083B1089586B7806886BF86B7806286BF62
:100FF00006B607FEFDCF81B1887F8031E1F7089505
:1010000081B1887F8036E1F786B7806886BF06B6F3
:1010100007FEFDCF81B1887F8038E1F783B1089565
:101020008FB58E7F8FBD8FB582608FBD8EB5886086
:101030008EBD8EB580618EBD8FB58F7B8FBD8FB518
:1010400080688FBD0895AF92BF92CF92DF92EF92EA
:10105000FF920F931F93E82E66B577B580E090E07E
:101060000E94D7045B016C01FF240027F7FC009568
:10107000102FC801B7010E94250420E030E048ECA1
:1010800052E40E9419039B01AC01C601B5010E9404
:101090001F020E9449007BBD6ABD1F910F91FF9006
:1010A000EF90DF90CF90BF90AF900895282F30E061
:1010B00083E0220F331F8A95E1F7442737FD4095DF
:1010C000542F60E072E18AE790E00E940A1437BD75
:1010D00026BD08958EB58E7F8EBD8EB582608EBD85
:1010E0008EB58B7F8EBD08958EB58E7F8EBD8EB5ED
:1010F0008D7F8EBD8EB58B7F8EBD089510920202BE
:1011000010920302109204021092050212BE08957A
:1011100083309105A9F08430910530F48130910538
:1011200049F00297F9F409C08430910579F00597E8
:10113000C9F40FC083B7816017C083B78E7F02C028
:1011400083B7816083BF83B7826011C083B78E7F0E
:1011500002C083B7816083BF83B78D7F83BF83B7AE
:10116000846008C083B78E7F83BF83B78D7F83BFC2
:1011700083B78B7F83BF089583B78E7F83BF83B789
:101180008D7F83BF83B78B7F83BF08954F925F921C
:101190006F927F929F92AF92BF92CF92DF92EF9227
:1011A000FF920F931F93DF93CF9300D000D0CDB762
:1011B000DEB728EE33E040E050E00E94EB13698395
:1011C0007A838B839C838FEF8CBF69817A818B813B
:1011D0009C810E94D7042B013C0120E030E04FE7C6
:1011E00053E40E9419030E9449005B016C010F2E19
:1011F000F0E0EF2EF0E0FF2EFFE70F2FF3E41F2FBC
:10120000F02D99249A9413C09A94692D70E080E08F
:1012100090E00E94D7047B018C01C301B201A801B8
:1012200097010E9419030E9449005B016C01C801EB
:10123000B7010E9449009B01AC0169817A818B81D1
:101240009C810E940A146115710581059105E1F6E2
:10125000A092FA01B092FB01C092FC01D092FD0174
:101260009CBE0F900F900F900F90CF91DF911F9128
:101270000F91FF90EF90DF90CF90BF90AF909F9035
:101280007F906F905F904F900895813039F081305A
:1012900058F0823061F483B78F7E02C083B78061DB
:1012A00083BF83B7806208C083B7806102C083B701
:1012B0008F7E83BF83B78F7D83BF08958CBF0895D2
:1012C0009093100280930F0208951F920F920FB611
:1012D0000F9211242F933F934F935F936F937F93BC
:1012E0008F939F93AF93BF93EF93FF9380910202ED
:1012F00090910302A0910402B09105020196A11DF4
:10130000B11D8093020290930302A0930402B09354
:1013100005022091FA013091FB014091FC015091AE
:10132000FD0182179307A407B50781F4E0910F022E
:10133000F09110020995109202021092030210928D
:101340000402109205028091FE0182BFFF91EF918D
:10135000BF91AF919F918F917F916F915F914F91CD
:101360003F912F910F900FBE0F901F9018951F92D5
:101370000F920FB60F9211242F933F934F935F93C9
:101380006F937F938F939F93AF93BF93EF93FF934D
:101390008091020290910302A0910402B091050293
:1013A0000196A11DB11D8093020290930302A093A8
:1013B0000402B09305022091FA013091FB014091A3
:1013C000FC015091FD0182179307A407B50769F44A
:1013D000E0910F02F0911002099510920202109212
:1013E00003021092040210920502FF91EF91BF9147
:1013F000AF919F918F917F916F915F914F913F91AD
:101400002F910F900FBE0F901F90189583B7886093
:1014100083BF83B78F7B83BF89B7826089BF0E94F8
:10142000120A08958FB780688FBF08958FB78F779E
:101430008FBF0895833088F4813041F0813018F0F7
:10144000823059F407C08BB7806402C08BB78068C4
:101450008BBF08958BB780628BBF0895833088F46B
:10146000813041F0813018F0823059F407C08BB7D9
:101470008F7B02C08BB78F778BBF08958BB78F7D23
:101480008BBF0895643008F04EC0662389F4813024
:1014900049F0813020F0823009F045C006C085B7A0
:1014A0008E7F11C085B78B7F14C084B78F7B17C028
:1014B0006130B9F4813059F0813018F0823099F5FB
:1014C0000CC085B7816085BF85B7826024C085B7B1
:1014D000846085BF85B788601EC084B7806484BF80
:1014E0000895623071F4882319F08130E1F403C06B
:1014F00085B781600DC085B7846085BF85B7877F5C
:101500000AC0882319F0813071F407C085B78E7F37
:1015100085BF85B78D7F85BF089585B78B7F85BFD4
:1015200085B7877F85BF0895FB018330C0F4813084
:1015300059F0813018F0823091F40CC08AB782954E
:1015400086958695817004C08AB7881F8827881F72
:10155000808308958AB782958695817080830895E7
:10156000909316028093150208959093120280932F
:1015700011020895909314028093130208951F920C
:101580000F920FB60F9211242F933F934F935F93B7
:101590006F937F938F939F93AF93BF93EF93FF933B
:1015A000E0911502F09116020995FF91EF91BF911C
:1015B000AF919F918F917F916F915F914F913F91EB
:1015C0002F910F900FBE0F901F9018951F920F92A2
:1015D0000FB60F9211242F933F934F935F936F9306
:1015E0007F938F939F93AF93BF93EF93FF93E0917C
:1015F0001102F09112020995FF91EF91BF91AF9105
:101600009F918F917F916F915F914F913F912F911A
:101610000F900FBE0F901F9018951F920F920FB64C
:101620000F9211242F933F934F935F936F937F9368
:101630008F939F93AF93BF93EF93FF93E091130228
:10164000F09114020995FF91EF91BF91AF919F9195
:101650008F917F916F915F914F913F912F910F905B
:101660000FBE0F901F9018958CEF8ABB80EF87BB41
:1016700087E084BB83EF81BB84E08BBB8FEF88BBAB
:1016800083E085BB8FE882BB0895683010F081E06D
:1016900008954130B1F5813099F0813030F08230D9
:1016A000D1F0833009F06BC021C02AB381E090E013
:1016B00002C0880F991F6A95E2F7282B2ABB5DC0EC
:1016C00027B381E090E002C0880F991F6A95E2F786
:1016D000282B27BB52C024B381E090E002C0880FC2
:1016E000991F6A95E2F7282B24BB47C021B381E0FC
:1016F00090E002C0880F991F6A95E2F7282B21BB62
:101700003CC0442311F084E00895813099F0813089
:1017100028F08230D9F0833091F524C02AB381E0DB
:1017200090E002C0880F991F6A95E2F780958223A6
:101730008ABB23C027B381E090E002C0880F991FC5
:101740006A95E2F78095822387BB17C024B381E0B6
:1017500090E002C0880F991F6A95E2F78095822376
:1017600084BB0BC021B381E090E002C0880F991FB9
:101770006A95E2F78095822381BB80E0089582E03C
:101780000895683010F081E008954130B1F581305E
:1017900099F0813030F08230D1F0833009F06BC0A5
:1017A00021C02BB381E090E002C0880F991F6A9599
:1017B000E2F7282B2BBB5DC028B381E090E002C08C
:1017C000880F991F6A95E2F7282B28BB52C025B3D2
:1017D00081E090E002C0880F991F6A95E2F7282BFC
:1017E00025BB47C022B381E090E002C0880F991F5B
:1017F0006A95E2F7282B22BB3CC0442311F083E01A
:101800000895813099F0813028F08230D9F083300A
:1018100091F524C02BB381E090E002C0880F991F9E
:101820006A95E2F7809582238BBB23C028B381E0C1
:1018300090E002C0880F991F6A95E2F78095822395
:1018400088BB17C025B381E090E002C0880F991FC4
:101850006A95E2F78095822385BB0BC022B381E0B5
:1018600090E002C0880F991F6A95E2F78095822365
:1018700082BB80E0089582E00895FA01108268300A
:1018800010F081E00895813051F0813030F08230E5
:1018900041F0833089F082E0089589B303C086B3B4
:1018A00001C083B390E002C0959587956A95E2F7F1
:1018B0008170808380E0089580B390E002C09595A8
:1018C00087956A95E2F78170808380E0089568309B
:1018D00010F081E00895813099F0813030F082304D
:1018E000D1F0833021F182E008952BB381E090E0C4
:1018F00002C0880F991F6A95E2F728272BBB15C0F5
:1019000028B381E090E002C0880F991F6A95E2F742
:10191000282728BB0AC025B381E090E002C0880FC9
:10192000991F6A95E2F7282725BB80E0089522B326
:1019300081E090E002C0880F991F6A95E2F728279E
:1019400022BB80E00895843010F085E008956F3F59
:1019500099F0662389F4813049F0813028F0823093
:1019600039F08330D9F406C01ABA16C017BA14C0B9
:1019700014BA12C011BA10C0813049F0813028F079
:10198000823039F0833051F406C06ABB05C067BBB2
:1019900003C064BB01C061BB80E0089580E008958E
:1019A000843010F085E008956F3F99F0662389F444
:1019B000813049F0813028F0823039F08330D9F419
:1019C00006C01BBA16C018BA14C015BA12C012BA93
:1019D00010C0813049F0813028F0823039F08330F6
:1019E00051F406C06BBB05C068BB03C065BB01C03A
:1019F00062BB80E0089580E00895FB01108284308E
:101A000010F085E00895813051F0813030F082305F
:101A100041F0833051F082E0089589B303C086B36A
:101A200001C083B3808380E0089580B3808380E029
:101A300008958430A8F4813061F0813030F0823034
:101A400061F0833079F082E008958BB380958BBB91
:101A500007C088B3809588BB03C085B3809585BBDC
:101A600080E0089582B3809582BB80E008953F981E
:101A70003E983D98309A319A329A3598379A08951F
:101A800015B814B88330C1F0843028F4813071F077
:101A9000823080F409C08530A1F0853080F0863036
:101AA00099F08730B1F412C0389801C0389A39984B
:101AB0003A980FC0389801C0389A399AF9CF3898B7
:101AC00001C0389A399804C0389801C0389A399AB8
:101AD0003A9A369A349BFECF349A24B135B1C90173
:101AE00008950E94400D28E833E1829FB001839F52
:101AF000700D929F700D112480E090E00E94D70439
:101B000020E030E040E85AE30E941F0220E030E08D
:101B100040E251E40E9419030E944900CB0108955C
:101B200060E00E94A30C0895DF93CF930F92CDB78E
:101B3000DEB74983AE014F5F5F4F0E943D0C0F90AF
:101B4000CF91DF91089540E00E94450B08950E94D7
:101B5000670C089540E00E94C10B089541E00E9487
:101B6000C10B089541E00E94450B08950E94400D6D
:101B700028E833E1AC01429FC001439F900D529F82
:101B8000900D1124892F8695869590E008950E94E6
:101B9000B60D9C0143E0893E940710F484E008955B
:101BA000895E9340885E934010F483E00895C901F4
:101BB000815D9740885E934010F482E00895C901EA
:101BC000895B9B40885E934010F481E00895215A20
:101BD0003F40285E334010F085E0089580E008958E
:101BE0000F931F93182F80E065E041E00E94C10B26
:101BF00080E066E040E00E94C10B82E0612F0E941D
:101C0000D00C80E067E041E00E94C10B00E117E2E8
:101C1000C8010197F1F780E067E040E00E94C10B46
:101C2000C8010197F1F71F910F9108952F923F92EC
:101C30004F925F926F927F928F929F92AF92BF92DC
:101C4000CF92DF92EF92FF920F931F93DF93CF9388
:101C5000CDB7DEB766970FB6F894DEBF0FBECDBF27
:101C60004B015C0120E030E040E050E00E94F503D1
:101C700087FD07C0C501B4010E9449002B013C014A
:101C80000DC0B7FAB094B7F8B094C501B4010E9482
:101C900049002B013C018DE20E94F00DCE0101961E
:101CA0009E8B8D8B8AE0ED89FE8911928A95E9F7EA
:101CB000830172011E010894211C311C17C0C80148
:101CC000B7012AE030E040E050E00E940A14F10140
:101CD00061931F01C801B7012AE030E040E050E005
:101CE0000E940A14C901DA017C018D01D22CFD8900
:101CF000DF1AE114F1040105110509F7DA948D2DBD
:101D0000992787FD9095D3948E010F5F1F4F080F81
:101D1000191F7801ED18F10807C0F8018081805D76
:101D20000E94F00D01501040CD2C0E151F05A9F793
:101D30008BE0282E312C2C0E3D1E8AE0F1011192F1
:101D40008A95E9F7C501B40120E030E040E85FE39F
:101D50000E94F2017B018C01C301B2010E94D704F1
:101D60009B01AC01C801B7010E94C10120E836E91E
:101D700048E15BE40E941F020E9449007B018C0144
:101D80008EE20E94F00D4101510117C0C801B70158
:101D90002AE030E040E050E00E940A14F50161932F
:101DA0005F01C801B7012AE030E040E050E00E9446
:101DB0000A14C901DA017C018D019A2D9219E114EE
:101DC000F1040105110511F74BE69E012B5E3F4F13
:101DD000F4018081882359F092508E01055F1F4FD6
:101DE000892F992787FD9095080F191F0BC0F401C3
:101DF00041934F01E217F30759F7EECF805D0E9440
:101E0000F00DC394F80180818B3629F00150104009
:101E1000F7E0CF1699F766960FB6F894DEBF0FBEBF
:101E2000CDBFCF91DF911F910F91FF90EF90DF9089
:101E3000CF90BF90AF909F908F907F906F905F906A
:101E40004F903F902F9008953F924F925F926F92E4
:101E50007F928F929F92AF92BF92CF92DF92EF923A
:101E6000FF920F931F93DF93CF93CDB7DEB76497A5
:101E70000FB6F894DEBF0FBECDBF7B018C014E01C3
:101E80000894811C911C8AE0F40111928A95E9F76B
:101E9000C801B7010E94D7042B013C01540117C0AF
:101EA000C801B7012AE030E040E050E00E940A1487
:101EB000F50161935F01C801B7012AE030E040E01D
:101EC00050E00E940A14C901DA017C018D01DA2C6C
:101ED000D818E114F1040105110511F7DA948D2DDC
:101EE000992787FD9095D3948E010F5F1F4F080FA0
:101EF000191F7801ED18F10807C0F8018081805D95
:101F00000E94F00D015010403D2C0E151F05A9F741
:101F10009BE0892E912C8C0E9D1E8AE0F40111927B
:101F20008A95E9F7C301B20120E030E040E85FE3C1
:101F30000E94F201A30192010E94C10120E836E94A
:101F400048E15BE40E941F020E9449007B018C0172
:101F50008EE20E94F00D5401640117C0C801B70160
:101F60002AE030E040E050E00E940A14F60161935C
:101F70006F01C801B7012AE030E040E050E00E9464
:101F80000A14C901DA017C018D019C2D9819E11414
:101F9000F1040105110511F74BE69E012B5E3F4F41
:101FA000F5018081882359F092508E01055F1F4F03
:101FB000892F992787FD9095080F191F0BC0F501F0
:101FC00041935F01E217F30759F7EECF805D0E945E
:101FD000F00D3394F80180818B3629F001501040C8
:101FE000F7E03F1699F764960FB6F894DEBF0FBE80
:101FF000CDBFCF91DF911F910F91FF90EF90DF90B8
:10200000CF90BF90AF909F908F907F906F905F9098
:102010004F903F9008951F93CF93DF93EC0110E012
:1020200003C01F5F0E94F00DFE01E10FF11D8081D2
:102030008823B9F7DF91CF911F9108950F931F93D4
:10204000182F80E065E040E00E94C10B80E066E070
:1020500040E00E94C10B82E0612F0E94D00C80E022
:1020600067E041E00E94C10B00E117E2C80101975F
:10207000F1F780E067E040E00E94C10BC8010197E2
:10208000F1F71F910F9108950F931F93CF93DF9353
:102090008C0180E40E941E10C0E0D0E0F801EC0F3B
:1020A000FD1F80810E94F00D2196C031D105B1F74E
:1020B00080E80E941E1080E00E94F00DDF91CF9119
:1020C0001F910F910895813160F4613019F06230F1
:1020D00041F404C080580E941E10089581540E944B
:1020E0001E1008950F931F938EE591E028EC30E0C9
:1020F000F9013197F1F70197D9F788E30E941E1093
:1021000000ED17E0C8010197F1F78CE00E941E1066
:10211000C8010197F1F781E00E941E1080EA9FE05C
:102120000197F1F786E00E941E10C8010197F1F7B0
:102130001F910F9108956F927F929F92AF92BF92DD
:10214000CF92DF92EF92FF920F931F93DF93CF9383
:102150000F92CDB7DEB719829924EE24FF245E01D9
:102160000894A11CB11C90E4692E9CE9792E84E0AE
:10217000C82ECE0C81E06C2D40E00E94C10B87017F
:102180000C511E4FDD2481E06D2DA5010E943D0CF8
:102190008981882371F4F8019080C3010197F1F7D8
:1021A00005C081E06D2DA5010E943D0C8981882329
:1021B000C1F3D3940C5F1F4FF4E0DF1621F781E0E9
:1021C0006C2D41E00E94C10B0894E11CF11C84E0DD
:1021D000E816F10461F6892D0F90CF91DF911F91E0
:1021E0000F91FF90EF90DF90CF90BF90AF909F90B6
:1021F0007F906F90089581E060EF0E94A30C81E0D2
:102200006FEF0E94D00C08950F931F93182F062F85
:102210000E94A30713701065812F0E94B807802FBA
:102220000E94DA070E94F207812F0E94C9070E94CC
:10223000E607182F0E94B107812F1F910F91089573
:10224000FF920F931F93182F062FF42E0E94A307BF
:102250001370812F80650E94B807802F0E94DA07D3
:102260008F2D0E94DA070E94B1071F910F91FF90F6
:10227000089581E060E040E00E94C10B81E061E0F0
:1022800040E00E94C10B089581E060E040E00E94C0
:10229000C10B81E061E041E00E94C10B089581E043
:1022A00060E041E00E94C10B81E061E040E00E94FB
:1022B000C10B089581E060E041E00E94450B81E0A0
:1022C00061E041E00E94450B089510920E0282E009
:1022D0008093F401089510920D0281E08093F4013F
:1022E0000895CF93DF93EC010E947E0810920602BE
:1022F00010920702109208021092090280E090E00A
:10230000FE01E80FF91F1082019688309105C1F790
:1023100081E00E941E1080E061E00E94631080E670
:1023200090E00E940B1081E062E00E9463108CE656
:1023300090E00E940B1010920A02DF91CF91089555
:102340000F931F93CF93DF938C01EB010E947E08C4
:1023500020E030E0F801E20FF31FDE01A20FB31F0F
:1023600090818C91981701F52F5F3F4F25303105F3
:1023700089F781E00E941E1080E061E00E946310F6
:1023800085E790E00E940B1085E00E94230888EB0F
:102390009BE028EC30E0F9013197F1F70197D9F78C
:1023A00080E00E9423082AC080910B0290910C02C9
:1023B000019690930C0280930B02039724F181E025
:1023C0000E941E1080E061E00E9463108FE790E0A1
:1023D0000E940B1080E064E00E94AE0D88EB9BE051
:1023E00028EC30E0F9013197F1F70197D9F780E057
:1023F00064E00E94AA0D86E08093060210920C020F
:1024000010920B0219C081E062E00E9463108EE816
:1024100090E00E940B1081E00E941E1080E061E0BD
:102420000E94631080E690E00E940B108BE061E058
:102430000E94631010920602DF91CF911F910F91BD
:102440000895EF92FF921F93CF93DF937C01EB01EE
:10245000142F0E947E0880910602FE01E80FF11DF4
:1024600010838F5F80930602863018F48AE20E9400
:10247000F00D80910602853021F4C701BE010E9453
:10248000A011DF91CF911F91FF90EF900895FF92DF
:102490000F931F938C01F62E0E947E0880910802F4
:1024A000080F111DF801F0828F5F809308028630BB
:1024B00018F48AE20E94F00D80910802853041F400
:1024C00081E062E00E9463108EE990E00E940B10B0
:1024D0001F910F91FF900895AF92BF92CF92DF921C
:1024E000EF92FF920F931F93DF93CF9300D000D012
:1024F0000F92CDB7DEB70E94340B0E9472100E947B
:10250000370D0E94FB100E94120A80E00E941A0AF6
:1025100080E060E00E94420A85E691E10E94B50AEF
:102520000E94100882E30E9456080E946A080E94D6
:10253000060A64E170E080E090E00E94C6088BE645
:1025400091E10E94600980E00E94400D0E949B1072
:10255000DE011196E6EDF0E085E001900D928150EC
:10256000E1F783E00E94400DCC24C3945E010894FF
:10257000A11CB11C80E00E94400D0197A0E0B0E0DA
:10258000BC01CD010E94D70420E030E040E05FE3D1
:102590000E941F020E9449007B01DD2489E1E816A8
:1025A000F10410F0DD24D39480E062E04D2D0E9410
:1025B000C10B83E00E94400D8C018091F4018130B9
:1025C00009F069C080910E02882309F042C00E9480
:1025D000BC0881E00E941E1080E061E00E94631050
:1025E0008FEA90E00E940B1085E061E00E9463108A
:1025F000B70180E090E00E94240F89E061E00E9432
:10260000631085EB90E00E940B108DE061E00E946A
:102610006310DD2019F08AEB90E002C08EEB90E0B1
:102620000E940B1081E062E00E94631082EC90E057
:102630000E940B108FE062E00E9463100E5912405E
:10264000B80180E090E002561D4F0E94240FC09216
:102650000E0285E061E00E946310B70180E090E027
:102660000E94240F8DE061E00E946310DD2019F0CC
:102670008AEB90E002C08EEB90E00E940B108FE09E
:1026800062E00E9463100E591240B80180E090E0B1
:102690000E94240F6FCF823009F06CCF80910D0221
:1026A0008823C9F485E090E00E94880881E00E94B8
:1026B0001E1080E061E00E94631080E690E00E94BE
:1026C0000B1081E062E00E9463108CE690E00E94B3
:1026D0000B10C0920D0210910A02112311F50E94F5
:1026E0009B10182F882309F445CF0E947E081133D0
:1026F00051F48BE061E00E94631081E30E94F00DD1
:10270000C0920A0237CF123309F034CF8BE061E078
:102710000E94631082E30E94F00D82E080930A021F
:1027200029CF113041F580910702882399F481E087
:102730000E941E1080E061E00E94631080E690E03D
:102740000E940B108BE061E00E946310109307025F
:10275000109206020E949B10182F833459F188238F
:1027600009F408CF0E947E0885EF91E0B501412F62
:102770000E942112FFCE123009F0FCCE8091090296
:10278000882399F481E00E941E1080E061E00E949D
:1027900063108CEC90E00E940B1089E061E00E94D5
:1027A0006310C0920902109208020E949B10182F19
:1027B000833431F40E947E08C5010E947111DACE83
:1027C000882309F4D7CE0E947E0885EF91E0612F1F
:1027D0000E944712CFCE629FD001739FF001829F6B
:1027E000E00DF11D649FE00DF11D929FF00D839FA0
:1027F000F00D749FF00D659FF00D9927729FB00D3D
:10280000E11DF91F639FB00DE11DF91FBD01CF014F
:1028100011240895A1E21A2EAA1BBB1BFD010DC0B5
:10282000AA1FBB1FEE1FFF1FA217B307E407F50780
:1028300020F0A21BB30BE40BF50B661F771F881F5C
:10284000991F1A9469F760957095809590959B01F2
:10285000AC01BD01CF0108952F923F924F925F923C
:102860006F927F928F929F92AF92BF92CF92DF92A0
:10287000EF92FF920F931F93CF93DF93CDB7DEB705
:10288000CA1BDB0B0FB6F894DEBF0FBECDBF099499
:102890002A88398848885F846E847D848C849B84F0
:1028A000AA84B984C884DF80EE80FD800C811B81FE
:1028B000AA81B981CE0FD11D0FB6F894DEBF0FBE2D
:0A28C000CDBFED010895F894FFCF9D
:1028CA00312E50617373776F72643A00322E4C6FF7
:1028DA0067696E2E0057656C636F6D65202100571E
:1028EA00726F6E672050617373776F7264005772EC
:1028FA006F6E672054727920416761696E0050617A
:10290A007373776F7264204368616E6765640054FD
:10291A00454D503A0046414E3A004F4E20004F4630
:10292A0046004C4452204C4544533A004E657720A9
:10293A00506173733A0035343332310000000000BD
:10294A00000000000001020203030303040404045C
:10295A000404040405050505050505050505050521
:10296A000505050506060606060606060606060601
:10297A0006060606060606060606060606060606ED
:10298A0006060606070707070707070707070707D1
:10299A0007070707070707070707070707070707BD
:1029AA0007070707070707070707070707070707AD
:1029BA00070707070707070707070707070707079D
:1029CA000707070708080808080808080808080881
:1029DA00080808080808080808080808080808086D
:1029EA00080808080808080808080808080808085D
:1029FA00080808080808080808080808080808084D
:102A0A00080808080808080808080808080808083C
:102A1A00080808080808080808080808080808082C
:102A2A00080808080808080808080808080808081C
:102A3A00080808080808080808080808080808080C
:102A4A00080808083738392F3435362A3132332DF9
:0A2A5A0043303D2B01313233343597
:00000001FF
